{
    "bytecode": "6080604052670214e8348c4f00006007553480156200001d57600080fd5b50604051620015d3380380620015d38339810160408190526200004091620001c8565b6200004b33620000c3565b620000777f260aa97df2f6a33e5e1d3f3d647292aa4bad930376f7389e625fd9610ce9fe343362000113565b336000908152600560205260409020805460ff19166001179055600980546001600160a01b039384166001600160a01b031991821617909155600c805492909316911617905562000200565b600080546001600160a01b038381166001600160a01b0319831681178455604051919092169283917f8be0079c531659141344cd1fd0a4f28419497f9722a3daafe3b4186f6b6457e09190a35050565b6200011f828262000123565b5050565b60008281526001602090815260408083206001600160a01b038516845290915290205460ff166200011f5760008281526001602081815260408084206001600160a01b0386168086529252808420805460ff19169093179092559051339285917f2f8788117e7eff1d82e926ec794901d17c78024a50270940304540a733656f0d9190a45050565b80516001600160a01b0381168114620001c357600080fd5b919050565b60008060408385031215620001dc57600080fd5b620001e783620001ab565b9150620001f760208401620001ab565b90509250929050565b6113c380620002106000396000f3fe608060405234801561001057600080fd5b506004361061010b5760003560e01c8063715018a6116100a257806391d148541161007157806391d148541461024b578063a217fddf1461025e578063d547741f14610266578063f1215d2514610279578063f2fde38b1461028c57600080fd5b8063715018a6146101ee578063877325c0146101f65780638da5cb5b1461021d5780638eec99c81461023857600080fd5b80632f2ff15d116100de5780632f2ff15d1461019257806336568abe146101a5578063429b62e5146101b85780636a348983146101db57600080fd5b806301ffc9a714610110578063248a9ca314610138578063278178f11461016a5780632d3456701461017f575b600080fd5b61012361011e366004610ea1565b61029f565b60405190151581526020015b60405180910390f35b61015c610146366004610ecb565b6000908152600160208190526040909120015490565b60405190815260200161012f565b61017d610178366004610ef9565b6102d6565b005b61017d61018d366004610f29565b6104d6565b61017d6101a0366004610ef9565b61058d565b61017d6101b3366004610ef9565b6105b9565b6101236101c6366004610f29565b60056020526000908152604090205460ff1681565b61017d6101e9366004610fe9565b610637565b61017d61083b565b61015c7f260aa97df2f6a33e5e1d3f3d647292aa4bad930376f7389e625fd9610ce9fe3481565b6000546040516001600160a01b03909116815260200161012f565b61017d610246366004610f29565b610871565b610123610259366004610ef9565b6108e9565b61015c600081565b61017d610274366004610ef9565b610914565b61017d610287366004611044565b61093b565b61017d61029a366004610f29565b610ad3565b60006001600160e01b03198216637965db0b60e01b14806102d057506301ffc9a760e01b6001600160e01b03198316145b92915050565b6001600160a01b03811660009081526005602052604090205460ff166103555760405162461bcd60e51b815260206004820152602960248201527f596f752063616e6e6f74207769746864726177206665657320666f722074686960448201526873206164647265737360b81b60648201526084015b60405180910390fd5b6040805160038082526080820190925260009160208201606080368337505060095482519293506001600160a01b0316918391506000906103985761039861108b565b6001600160a01b039283166020918202929092010152600d548251911690829060019081106103c9576103c961108b565b6001600160a01b03928316602091820292909201810191909152600c54604080516315ab88c960e31b81529051919093169263ad5c46489260048083019391928290030181865afa158015610422573d6000803e3d6000fd5b505050506040513d601f19601f8201168201806040525081019061044691906110a1565b816002815181106104595761045961108b565b6001600160a01b039283166020918202929092010152600c54604051635c11d79560e01b8152911690635c11d7959061049f9086906000908690889042906004016110be565b600060405180830381600087803b1580156104b957600080fd5b505af11580156104cd573d6000803e3d6000fd5b50505050505050565b6000546001600160a01b031633146105005760405162461bcd60e51b815260040161034c9061112f565b6000546001600160a01b03166001600160a01b0316816001600160a01b03160361056c5760405162461bcd60e51b815260206004820152601f60248201527f64656661756c742061646d696e2063616e6e6f74206265207265766f6b656400604482015260640161034c565b6001600160a01b03166000908152600560205260409020805460ff19169055565b600082815260016020819052604090912001546105aa8133610b6e565b6105b48383610bd2565b505050565b6001600160a01b03811633146106295760405162461bcd60e51b815260206004820152602f60248201527f416363657373436f6e74726f6c3a2063616e206f6e6c792072656e6f756e636560448201526e103937b632b9903337b91039b2b63360891b606482015260840161034c565b6106338282610c3d565b5050565b7f260aa97df2f6a33e5e1d3f3d647292aa4bad930376f7389e625fd9610ce9fe346106628133610b6e565b6000546001600160a01b039081169083168190036106dc5760405162461bcd60e51b815260206004820152603160248201527f6f776e65722063616e6e6f74207769746864726177206665652066756e647320604482015270199c9bdb481d1a194818dbdb9d1c9858dd607a1b606482015260840161034c565b600b546106ea90600161117a565b600b819055604051600090600a906107119084904290602001918252602082015260400190565b6040516020818303038152906040528051906020012060001c6107349190611192565b9050866006600082825461074891906111b4565b909155505060075460009061075d90896111b4565b905060075460086000828254610773919061117a565b909155505060095460405163a9059cbb60e01b81526001600160a01b038881166004830152602482018490529091169063a9059cbb906044016020604051808303816000875af11580156107cb573d6000803e3d6000fd5b505050506040513d601f19601f820116820180604052508101906107ef91906111cb565b507f3e9e0c0c6f6f566159ae0f287d5b69c5dead544993270d0464e758dd4f0c0f0c824289338c8b60405161082996959493929190611249565b60405180910390a15050505050505050565b6000546001600160a01b031633146108655760405162461bcd60e51b815260040161034c9061112f565b61086f6000610ca4565b565b6000546001600160a01b0316331461089b5760405162461bcd60e51b815260040161034c9061112f565b6108c57f260aa97df2f6a33e5e1d3f3d647292aa4bad930376f7389e625fd9610ce9fe3482610cf4565b6001600160a01b03166000908152600560205260409020805460ff19166001179055565b60009182526001602090815260408084206001600160a01b0393909316845291905290205460ff1690565b600082815260016020819052604090912001546109318133610b6e565b6105b48383610c3d565b600a5461094990600161117a565b600a8181556040516000919061096e9084904290602001918252602082015260400190565b6040516020818303038152906040528051906020012060001c6109919190611192565b905083600660008282546109a5919061117a565b90915550506009546040516323b872dd60e01b8152336004820152306024820152604481018690526001600160a01b03909116906323b872dd906064016020604051808303816000875af1158015610a01573d6000803e3d6000fd5b505050506040513d601f19601f82011682018060405250810190610a2591906111cb565b50336000908152600360209081526040808320805460ff19166001179055600290915281208054869290610a5a90849061117a565b9091555050600854670de0b6b3a76400001015610a8e57600080546001600160a01b03169050610a8c600854826102d6565b505b7fce189473e7cd2623f2f457a47e9639914cff180dcd3cf350eceaf14ad93be7278142853388604051610ac5959493929190611293565b60405180910390a150505050565b6000546001600160a01b03163314610afd5760405162461bcd60e51b815260040161034c9061112f565b6001600160a01b038116610b625760405162461bcd60e51b815260206004820152602660248201527f4f776e61626c653a206e6577206f776e657220697320746865207a65726f206160448201526564647265737360d01b606482015260840161034c565b610b6b81610ca4565b50565b610b7882826108e9565b61063357610b90816001600160a01b03166014610cfe565b610b9b836020610cfe565b604051602001610bac9291906112cf565b60408051601f198184030181529082905262461bcd60e51b825261034c91600401611344565b610bdc82826108e9565b6106335760008281526001602081815260408084206001600160a01b0386168086529252808420805460ff19169093179092559051339285917f2f8788117e7eff1d82e926ec794901d17c78024a50270940304540a733656f0d9190a45050565b610c4782826108e9565b156106335760008281526001602090815260408083206001600160a01b0385168085529252808320805460ff1916905551339285917ff6391f5c32d9c69d2a47ea670b442974b53935d1edc7fd64eb21e047a839171b9190a45050565b600080546001600160a01b038381166001600160a01b0319831681178455604051919092169283917f8be0079c531659141344cd1fd0a4f28419497f9722a3daafe3b4186f6b6457e09190a35050565b6106338282610bd2565b60606000610d0d836002611357565b610d1890600261117a565b67ffffffffffffffff811115610d3057610d30610f46565b6040519080825280601f01601f191660200182016040528015610d5a576020820181803683370190505b509050600360fc1b81600081518110610d7557610d7561108b565b60200101906001600160f81b031916908160001a905350600f60fb1b81600181518110610da457610da461108b565b60200101906001600160f81b031916908160001a9053506000610dc8846002611357565b610dd390600161117a565b90505b6001811115610e4b576f181899199a1a9b1b9c1cb0b131b232b360811b85600f1660108110610e0757610e0761108b565b1a60f81b828281518110610e1d57610e1d61108b565b60200101906001600160f81b031916908160001a90535060049490941c93610e4481611376565b9050610dd6565b508315610e9a5760405162461bcd60e51b815260206004820181905260248201527f537472696e67733a20686578206c656e67746820696e73756666696369656e74604482015260640161034c565b9392505050565b600060208284031215610eb357600080fd5b81356001600160e01b031981168114610e9a57600080fd5b600060208284031215610edd57600080fd5b5035919050565b6001600160a01b0381168114610b6b57600080fd5b60008060408385031215610f0c57600080fd5b823591506020830135610f1e81610ee4565b809150509250929050565b600060208284031215610f3b57600080fd5b8135610e9a81610ee4565b634e487b7160e01b600052604160045260246000fd5b600082601f830112610f6d57600080fd5b813567ffffffffffffffff80821115610f8857610f88610f46565b604051601f8301601f19908116603f01168101908282118183101715610fb057610fb0610f46565b81604052838152866020858801011115610fc957600080fd5b836020870160208301376000602085830101528094505050505092915050565b600080600060608486031215610ffe57600080fd5b83359250602084013567ffffffffffffffff81111561101c57600080fd5b61102886828701610f5c565b925050604084013561103981610ee4565b809150509250925092565b6000806040838503121561105757600080fd5b82359150602083013567ffffffffffffffff81111561107557600080fd5b61108185828601610f5c565b9150509250929050565b634e487b7160e01b600052603260045260246000fd5b6000602082840312156110b357600080fd5b8151610e9a81610ee4565b600060a082018783526020878185015260a0604085015281875180845260c086019150828901935060005b8181101561110e5784516001600160a01b0316835293830193918301916001016110e9565b50506001600160a01b03969096166060850152505050608001529392505050565b6020808252818101527f4f776e61626c653a2063616c6c6572206973206e6f7420746865206f776e6572604082015260600190565b634e487b7160e01b600052601160045260246000fd5b6000821982111561118d5761118d611164565b500190565b6000826111af57634e487b7160e01b600052601260045260246000fd5b500690565b6000828210156111c6576111c6611164565b500390565b6000602082840312156111dd57600080fd5b81518015158114610e9a57600080fd5b60005b838110156112085781810151838201526020016111f0565b83811115611217576000848401525b50505050565b600081518084526112358160208601602086016111ed565b601f01601f19169290920160200192915050565b86815285602082015260c06040820152600061126860c083018761121d565b6001600160a01b039586166060840152608083019490945250921660a0909201919091529392505050565b85815284602082015260a0604082015260006112b260a083018661121d565b6001600160a01b0394909416606083015250608001529392505050565b7f416363657373436f6e74726f6c3a206163636f756e74200000000000000000008152600083516113078160178501602088016111ed565b7001034b99036b4b9b9b4b733903937b6329607d1b60179184019182015283516113388160288401602088016111ed565b01602801949350505050565b602081526000610e9a602083018461121d565b600081600019048311821515161561137157611371611164565b500290565b60008161138557611385611164565b50600019019056fea264697066735822122089838e9e054155ca627b0d26a45a2f3b492dfa138866822ed222a9b0d8149c8c64736f6c634300080d0033",
    "bytecodeSha1": "0a2d20fdb32e2e80316fc102261a47b92d761439",
    "type": "contract",
    "abi": [
        {
            "inputs": [
                {
                    "internalType": "address",
                    "name": "_spiceContract",
                    "type": "address"
                },
                {
                    "internalType": "address",
                    "name": "_router",
                    "type": "address"
                }
            ],
            "stateMutability": "nonpayable",
            "type": "constructor",
            "name": "constructor"
        },
        {
            "anonymous": false,
            "inputs": [
                {
                    "indexed": false,
                    "internalType": "uint256",
                    "name": "tID",
                    "type": "uint256"
                },
                {
                    "indexed": false,
                    "internalType": "uint256",
                    "name": "time",
                    "type": "uint256"
                },
                {
                    "indexed": false,
                    "internalType": "string",
                    "name": "email",
                    "type": "string"
                },
                {
                    "indexed": false,
                    "internalType": "address",
                    "name": "despositor",
                    "type": "address"
                },
                {
                    "indexed": false,
                    "internalType": "uint256",
                    "name": "amount",
                    "type": "uint256"
                }
            ],
            "name": "Deposit",
            "type": "event"
        },
        {
            "anonymous": false,
            "inputs": [
                {
                    "indexed": true,
                    "internalType": "address",
                    "name": "previousOwner",
                    "type": "address"
                },
                {
                    "indexed": true,
                    "internalType": "address",
                    "name": "newOwner",
                    "type": "address"
                }
            ],
            "name": "OwnershipTransferred",
            "type": "event"
        },
        {
            "anonymous": false,
            "inputs": [
                {
                    "indexed": true,
                    "internalType": "bytes32",
                    "name": "role",
                    "type": "bytes32"
                },
                {
                    "indexed": true,
                    "internalType": "bytes32",
                    "name": "previousAdminRole",
                    "type": "bytes32"
                },
                {
                    "indexed": true,
                    "internalType": "bytes32",
                    "name": "newAdminRole",
                    "type": "bytes32"
                }
            ],
            "name": "RoleAdminChanged",
            "type": "event"
        },
        {
            "anonymous": false,
            "inputs": [
                {
                    "indexed": true,
                    "internalType": "bytes32",
                    "name": "role",
                    "type": "bytes32"
                },
                {
                    "indexed": true,
                    "internalType": "address",
                    "name": "account",
                    "type": "address"
                },
                {
                    "indexed": true,
                    "internalType": "address",
                    "name": "sender",
                    "type": "address"
                }
            ],
            "name": "RoleGranted",
            "type": "event"
        },
        {
            "anonymous": false,
            "inputs": [
                {
                    "indexed": true,
                    "internalType": "bytes32",
                    "name": "role",
                    "type": "bytes32"
                },
                {
                    "indexed": true,
                    "internalType": "address",
                    "name": "account",
                    "type": "address"
                },
                {
                    "indexed": true,
                    "internalType": "address",
                    "name": "sender",
                    "type": "address"
                }
            ],
            "name": "RoleRevoked",
            "type": "event"
        },
        {
            "anonymous": false,
            "inputs": [
                {
                    "indexed": false,
                    "internalType": "uint256",
                    "name": "tID",
                    "type": "uint256"
                },
                {
                    "indexed": false,
                    "internalType": "uint256",
                    "name": "time",
                    "type": "uint256"
                },
                {
                    "indexed": false,
                    "internalType": "string",
                    "name": "email",
                    "type": "string"
                },
                {
                    "indexed": false,
                    "internalType": "address",
                    "name": "withdrawer",
                    "type": "address"
                },
                {
                    "indexed": false,
                    "internalType": "uint256",
                    "name": "amount",
                    "type": "uint256"
                },
                {
                    "indexed": false,
                    "internalType": "address",
                    "name": "to",
                    "type": "address"
                }
            ],
            "name": "Withdraw",
            "type": "event"
        },
        {
            "inputs": [],
            "name": "CAN_MAKE_WITHDRAWAL",
            "outputs": [
                {
                    "internalType": "bytes32",
                    "name": "",
                    "type": "bytes32"
                }
            ],
            "stateMutability": "view",
            "type": "function"
        },
        {
            "inputs": [],
            "name": "DEFAULT_ADMIN_ROLE",
            "outputs": [
                {
                    "internalType": "bytes32",
                    "name": "",
                    "type": "bytes32"
                }
            ],
            "stateMutability": "view",
            "type": "function"
        },
        {
            "inputs": [
                {
                    "internalType": "uint256",
                    "name": "tokenAmount",
                    "type": "uint256"
                },
                {
                    "internalType": "address",
                    "name": "receiver",
                    "type": "address"
                }
            ],
            "name": "_swapFees",
            "outputs": [],
            "stateMutability": "nonpayable",
            "type": "function"
        },
        {
            "inputs": [
                {
                    "internalType": "uint256",
                    "name": "_gems",
                    "type": "uint256"
                },
                {
                    "internalType": "string",
                    "name": "email",
                    "type": "string"
                },
                {
                    "internalType": "address",
                    "name": "receiver",
                    "type": "address"
                }
            ],
            "name": "adminWithdrawFor",
            "outputs": [],
            "stateMutability": "nonpayable",
            "type": "function"
        },
        {
            "inputs": [
                {
                    "internalType": "address",
                    "name": "",
                    "type": "address"
                }
            ],
            "name": "admins",
            "outputs": [
                {
                    "internalType": "bool",
                    "name": "",
                    "type": "bool"
                }
            ],
            "stateMutability": "view",
            "type": "function"
        },
        {
            "inputs": [
                {
                    "internalType": "uint256",
                    "name": "_spice",
                    "type": "uint256"
                },
                {
                    "internalType": "string",
                    "name": "email",
                    "type": "string"
                }
            ],
            "name": "deposit",
            "outputs": [],
            "stateMutability": "nonpayable",
            "type": "function"
        },
        {
            "inputs": [
                {
                    "internalType": "bytes32",
                    "name": "role",
                    "type": "bytes32"
                }
            ],
            "name": "getRoleAdmin",
            "outputs": [
                {
                    "internalType": "bytes32",
                    "name": "",
                    "type": "bytes32"
                }
            ],
            "stateMutability": "view",
            "type": "function"
        },
        {
            "inputs": [
                {
                    "internalType": "bytes32",
                    "name": "role",
                    "type": "bytes32"
                },
                {
                    "internalType": "address",
                    "name": "account",
                    "type": "address"
                }
            ],
            "name": "grantRole",
            "outputs": [],
            "stateMutability": "nonpayable",
            "type": "function"
        },
        {
            "inputs": [
                {
                    "internalType": "bytes32",
                    "name": "role",
                    "type": "bytes32"
                },
                {
                    "internalType": "address",
                    "name": "account",
                    "type": "address"
                }
            ],
            "name": "hasRole",
            "outputs": [
                {
                    "internalType": "bool",
                    "name": "",
                    "type": "bool"
                }
            ],
            "stateMutability": "view",
            "type": "function"
        },
        {
            "inputs": [],
            "name": "owner",
            "outputs": [
                {
                    "internalType": "address",
                    "name": "",
                    "type": "address"
                }
            ],
            "stateMutability": "view",
            "type": "function"
        },
        {
            "inputs": [],
            "name": "renounceOwnership",
            "outputs": [],
            "stateMutability": "nonpayable",
            "type": "function"
        },
        {
            "inputs": [
                {
                    "internalType": "bytes32",
                    "name": "role",
                    "type": "bytes32"
                },
                {
                    "internalType": "address",
                    "name": "account",
                    "type": "address"
                }
            ],
            "name": "renounceRole",
            "outputs": [],
            "stateMutability": "nonpayable",
            "type": "function"
        },
        {
            "inputs": [
                {
                    "internalType": "address",
                    "name": "_admin",
                    "type": "address"
                }
            ],
            "name": "revokeAdmin",
            "outputs": [],
            "stateMutability": "nonpayable",
            "type": "function"
        },
        {
            "inputs": [
                {
                    "internalType": "bytes32",
                    "name": "role",
                    "type": "bytes32"
                },
                {
                    "internalType": "address",
                    "name": "account",
                    "type": "address"
                }
            ],
            "name": "revokeRole",
            "outputs": [],
            "stateMutability": "nonpayable",
            "type": "function"
        },
        {
            "inputs": [
                {
                    "internalType": "address",
                    "name": "_newAdmin",
                    "type": "address"
                }
            ],
            "name": "setNewAdmin",
            "outputs": [],
            "stateMutability": "nonpayable",
            "type": "function"
        },
        {
            "inputs": [
                {
                    "internalType": "bytes4",
                    "name": "interfaceId",
                    "type": "bytes4"
                }
            ],
            "name": "supportsInterface",
            "outputs": [
                {
                    "internalType": "bool",
                    "name": "",
                    "type": "bool"
                }
            ],
            "stateMutability": "view",
            "type": "function"
        },
        {
            "inputs": [
                {
                    "internalType": "address",
                    "name": "newOwner",
                    "type": "address"
                }
            ],
            "name": "transferOwnership",
            "outputs": [],
            "stateMutability": "nonpayable",
            "type": "function"
        }
    ],
    "compiler": {
        "version": "0.8.13+commit.abaa5c0e",
        "evm_version": "istanbul",
        "optimizer": {
            "enabled": true,
            "runs": 200
        }
    },
    "contractName": "GameReward",
    "language": "Solidity",
    "natspec": {
        "methods": {
            "getRoleAdmin(bytes32)": {
                "details": "Returns the admin role that controls `role`. See {grantRole} and {revokeRole}. To change a role's admin, use {_setRoleAdmin}."
            },
            "grantRole(bytes32,address)": {
                "details": "Grants `role` to `account`. If `account` had not been already granted `role`, emits a {RoleGranted} event. Requirements: - the caller must have ``role``'s admin role."
            },
            "hasRole(bytes32,address)": {
                "details": "Returns `true` if `account` has been granted `role`."
            },
            "owner()": {
                "details": "Returns the address of the current owner."
            },
            "renounceOwnership()": {
                "details": "Leaves the contract without owner. It will not be possible to call `onlyOwner` functions anymore. Can only be called by the current owner. NOTE: Renouncing ownership will leave the contract without an owner, thereby removing any functionality that is only available to the owner."
            },
            "renounceRole(bytes32,address)": {
                "details": "Revokes `role` from the calling account. Roles are often managed via {grantRole} and {revokeRole}: this function's purpose is to provide a mechanism for accounts to lose their privileges if they are compromised (such as when a trusted device is misplaced). If the calling account had been granted `role`, emits a {RoleRevoked} event. Requirements: - the caller must be `account`."
            },
            "revokeRole(bytes32,address)": {
                "details": "Revokes `role` from `account`. If `account` had been granted `role`, emits a {RoleRevoked} event. Requirements: - the caller must have ``role``'s admin role."
            },
            "supportsInterface(bytes4)": {
                "details": "See {IERC165-supportsInterface}."
            },
            "transferOwnership(address)": {
                "details": "Transfers ownership of the contract to a new account (`newOwner`). Can only be called by the current owner."
            }
        },
        "kind": "dev",
        "version": 1
    },
    "opcodes": "PUSH1 0x80 PUSH1 0x40 MSTORE CALLVALUE DUP1 ISZERO PUSH2 0x10 JUMPI PUSH1 0x0 DUP1 REVERT JUMPDEST POP PUSH1 0x4 CALLDATASIZE LT PUSH2 0x10B JUMPI PUSH1 0x0 CALLDATALOAD PUSH1 0xE0 SHR DUP1 PUSH4 0x715018A6 GT PUSH2 0xA2 JUMPI DUP1 PUSH4 0x91D14854 GT PUSH2 0x71 JUMPI DUP1 PUSH4 0x91D14854 EQ PUSH2 0x24B JUMPI DUP1 PUSH4 0xA217FDDF EQ PUSH2 0x25E JUMPI DUP1 PUSH4 0xD547741F EQ PUSH2 0x266 JUMPI DUP1 PUSH4 0xF1215D25 EQ PUSH2 0x279 JUMPI DUP1 PUSH4 0xF2FDE38B EQ PUSH2 0x28C JUMPI PUSH1 0x0 DUP1 REVERT JUMPDEST DUP1 PUSH4 0x715018A6 EQ PUSH2 0x1EE JUMPI DUP1 PUSH4 0x877325C0 EQ PUSH2 0x1F6 JUMPI DUP1 PUSH4 0x8DA5CB5B EQ PUSH2 0x21D JUMPI DUP1 PUSH4 0x8EEC99C8 EQ PUSH2 0x238 JUMPI PUSH1 0x0 DUP1 REVERT JUMPDEST DUP1 PUSH4 0x2F2FF15D GT PUSH2 0xDE JUMPI DUP1 PUSH4 0x2F2FF15D EQ PUSH2 0x192 JUMPI DUP1 PUSH4 0x36568ABE EQ PUSH2 0x1A5 JUMPI DUP1 PUSH4 0x429B62E5 EQ PUSH2 0x1B8 JUMPI DUP1 PUSH4 0x6A348983 EQ PUSH2 0x1DB JUMPI PUSH1 0x0 DUP1 REVERT JUMPDEST DUP1 PUSH4 0x1FFC9A7 EQ PUSH2 0x110 JUMPI DUP1 PUSH4 0x248A9CA3 EQ PUSH2 0x138 JUMPI DUP1 PUSH4 0x278178F1 EQ PUSH2 0x16A JUMPI DUP1 PUSH4 0x2D345670 EQ PUSH2 0x17F JUMPI JUMPDEST PUSH1 0x0 DUP1 REVERT JUMPDEST PUSH2 0x123 PUSH2 0x11E CALLDATASIZE PUSH1 0x4 PUSH2 0xEA1 JUMP JUMPDEST PUSH2 0x29F JUMP JUMPDEST PUSH1 0x40 MLOAD SWAP1 ISZERO ISZERO DUP2 MSTORE PUSH1 0x20 ADD JUMPDEST PUSH1 0x40 MLOAD DUP1 SWAP2 SUB SWAP1 RETURN JUMPDEST PUSH2 0x15C PUSH2 0x146 CALLDATASIZE PUSH1 0x4 PUSH2 0xECB JUMP JUMPDEST PUSH1 0x0 SWAP1 DUP2 MSTORE PUSH1 0x1 PUSH1 0x20 DUP2 SWAP1 MSTORE PUSH1 0x40 SWAP1 SWAP2 KECCAK256 ADD SLOAD SWAP1 JUMP JUMPDEST PUSH1 0x40 MLOAD SWAP1 DUP2 MSTORE PUSH1 0x20 ADD PUSH2 0x12F JUMP JUMPDEST PUSH2 0x17D PUSH2 0x178 CALLDATASIZE PUSH1 0x4 PUSH2 0xEF9 JUMP JUMPDEST PUSH2 0x2D6 JUMP JUMPDEST STOP JUMPDEST PUSH2 0x17D PUSH2 0x18D CALLDATASIZE PUSH1 0x4 PUSH2 0xF29 JUMP JUMPDEST PUSH2 0x4D6 JUMP JUMPDEST PUSH2 0x17D PUSH2 0x1A0 CALLDATASIZE PUSH1 0x4 PUSH2 0xEF9 JUMP JUMPDEST PUSH2 0x58D JUMP JUMPDEST PUSH2 0x17D PUSH2 0x1B3 CALLDATASIZE PUSH1 0x4 PUSH2 0xEF9 JUMP JUMPDEST PUSH2 0x5B9 JUMP JUMPDEST PUSH2 0x123 PUSH2 0x1C6 CALLDATASIZE PUSH1 0x4 PUSH2 0xF29 JUMP JUMPDEST PUSH1 0x5 PUSH1 0x20 MSTORE PUSH1 0x0 SWAP1 DUP2 MSTORE PUSH1 0x40 SWAP1 KECCAK256 SLOAD PUSH1 0xFF AND DUP2 JUMP JUMPDEST PUSH2 0x17D PUSH2 0x1E9 CALLDATASIZE PUSH1 0x4 PUSH2 0xFE9 JUMP JUMPDEST PUSH2 0x637 JUMP JUMPDEST PUSH2 0x17D PUSH2 0x83B JUMP JUMPDEST PUSH2 0x15C PUSH32 0x260AA97DF2F6A33E5E1D3F3D647292AA4BAD930376F7389E625FD9610CE9FE34 DUP2 JUMP JUMPDEST PUSH1 0x0 SLOAD PUSH1 0x40 MLOAD PUSH1 0x1 PUSH1 0x1 PUSH1 0xA0 SHL SUB SWAP1 SWAP2 AND DUP2 MSTORE PUSH1 0x20 ADD PUSH2 0x12F JUMP JUMPDEST PUSH2 0x17D PUSH2 0x246 CALLDATASIZE PUSH1 0x4 PUSH2 0xF29 JUMP JUMPDEST PUSH2 0x871 JUMP JUMPDEST PUSH2 0x123 PUSH2 0x259 CALLDATASIZE PUSH1 0x4 PUSH2 0xEF9 JUMP JUMPDEST PUSH2 0x8E9 JUMP JUMPDEST PUSH2 0x15C PUSH1 0x0 DUP2 JUMP JUMPDEST PUSH2 0x17D PUSH2 0x274 CALLDATASIZE PUSH1 0x4 PUSH2 0xEF9 JUMP JUMPDEST PUSH2 0x914 JUMP JUMPDEST PUSH2 0x17D PUSH2 0x287 CALLDATASIZE PUSH1 0x4 PUSH2 0x1044 JUMP JUMPDEST PUSH2 0x93B JUMP JUMPDEST PUSH2 0x17D PUSH2 0x29A CALLDATASIZE PUSH1 0x4 PUSH2 0xF29 JUMP JUMPDEST PUSH2 0xAD3 JUMP JUMPDEST PUSH1 0x0 PUSH1 0x1 PUSH1 0x1 PUSH1 0xE0 SHL SUB NOT DUP3 AND PUSH4 0x7965DB0B PUSH1 0xE0 SHL EQ DUP1 PUSH2 0x2D0 JUMPI POP PUSH4 0x1FFC9A7 PUSH1 0xE0 SHL PUSH1 0x1 PUSH1 0x1 PUSH1 0xE0 SHL SUB NOT DUP4 AND EQ JUMPDEST SWAP3 SWAP2 POP POP JUMP JUMPDEST PUSH1 0x1 PUSH1 0x1 PUSH1 0xA0 SHL SUB DUP2 AND PUSH1 0x0 SWAP1 DUP2 MSTORE PUSH1 0x5 PUSH1 0x20 MSTORE PUSH1 0x40 SWAP1 KECCAK256 SLOAD PUSH1 0xFF AND PUSH2 0x355 JUMPI PUSH1 0x40 MLOAD PUSH3 0x461BCD PUSH1 0xE5 SHL DUP2 MSTORE PUSH1 0x20 PUSH1 0x4 DUP3 ADD MSTORE PUSH1 0x29 PUSH1 0x24 DUP3 ADD MSTORE PUSH32 0x596F752063616E6E6F74207769746864726177206665657320666F7220746869 PUSH1 0x44 DUP3 ADD MSTORE PUSH9 0x732061646472657373 PUSH1 0xB8 SHL PUSH1 0x64 DUP3 ADD MSTORE PUSH1 0x84 ADD JUMPDEST PUSH1 0x40 MLOAD DUP1 SWAP2 SUB SWAP1 REVERT JUMPDEST PUSH1 0x40 DUP1 MLOAD PUSH1 0x3 DUP1 DUP3 MSTORE PUSH1 0x80 DUP3 ADD SWAP1 SWAP3 MSTORE PUSH1 0x0 SWAP2 PUSH1 0x20 DUP3 ADD PUSH1 0x60 DUP1 CALLDATASIZE DUP4 CALLDATACOPY POP POP PUSH1 0x9 SLOAD DUP3 MLOAD SWAP3 SWAP4 POP PUSH1 0x1 PUSH1 0x1 PUSH1 0xA0 SHL SUB AND SWAP2 DUP4 SWAP2 POP PUSH1 0x0 SWAP1 PUSH2 0x398 JUMPI PUSH2 0x398 PUSH2 0x108B JUMP JUMPDEST PUSH1 0x1 PUSH1 0x1 PUSH1 0xA0 SHL SUB SWAP3 DUP4 AND PUSH1 0x20 SWAP2 DUP3 MUL SWAP3 SWAP1 SWAP3 ADD ADD MSTORE PUSH1 0xD SLOAD DUP3 MLOAD SWAP2 AND SWAP1 DUP3 SWAP1 PUSH1 0x1 SWAP1 DUP2 LT PUSH2 0x3C9 JUMPI PUSH2 0x3C9 PUSH2 0x108B JUMP JUMPDEST PUSH1 0x1 PUSH1 0x1 PUSH1 0xA0 SHL SUB SWAP3 DUP4 AND PUSH1 0x20 SWAP2 DUP3 MUL SWAP3 SWAP1 SWAP3 ADD DUP2 ADD SWAP2 SWAP1 SWAP2 MSTORE PUSH1 0xC SLOAD PUSH1 0x40 DUP1 MLOAD PUSH4 0x15AB88C9 PUSH1 0xE3 SHL DUP2 MSTORE SWAP1 MLOAD SWAP2 SWAP1 SWAP4 AND SWAP3 PUSH4 0xAD5C4648 SWAP3 PUSH1 0x4 DUP1 DUP4 ADD SWAP4 SWAP2 SWAP3 DUP3 SWAP1 SUB ADD DUP2 DUP7 GAS STATICCALL ISZERO DUP1 ISZERO PUSH2 0x422 JUMPI RETURNDATASIZE PUSH1 0x0 DUP1 RETURNDATACOPY RETURNDATASIZE PUSH1 0x0 REVERT JUMPDEST POP POP POP POP PUSH1 0x40 MLOAD RETURNDATASIZE PUSH1 0x1F NOT PUSH1 0x1F DUP3 ADD AND DUP3 ADD DUP1 PUSH1 0x40 MSTORE POP DUP2 ADD SWAP1 PUSH2 0x446 SWAP2 SWAP1 PUSH2 0x10A1 JUMP JUMPDEST DUP2 PUSH1 0x2 DUP2 MLOAD DUP2 LT PUSH2 0x459 JUMPI PUSH2 0x459 PUSH2 0x108B JUMP JUMPDEST PUSH1 0x1 PUSH1 0x1 PUSH1 0xA0 SHL SUB SWAP3 DUP4 AND PUSH1 0x20 SWAP2 DUP3 MUL SWAP3 SWAP1 SWAP3 ADD ADD MSTORE PUSH1 0xC SLOAD PUSH1 0x40 MLOAD PUSH4 0x5C11D795 PUSH1 0xE0 SHL DUP2 MSTORE SWAP2 AND SWAP1 PUSH4 0x5C11D795 SWAP1 PUSH2 0x49F SWAP1 DUP7 SWAP1 PUSH1 0x0 SWAP1 DUP7 SWAP1 DUP9 SWAP1 TIMESTAMP SWAP1 PUSH1 0x4 ADD PUSH2 0x10BE JUMP JUMPDEST PUSH1 0x0 PUSH1 0x40 MLOAD DUP1 DUP4 SUB DUP2 PUSH1 0x0 DUP8 DUP1 EXTCODESIZE ISZERO DUP1 ISZERO PUSH2 0x4B9 JUMPI PUSH1 0x0 DUP1 REVERT JUMPDEST POP GAS CALL ISZERO DUP1 ISZERO PUSH2 0x4CD JUMPI RETURNDATASIZE PUSH1 0x0 DUP1 RETURNDATACOPY RETURNDATASIZE PUSH1 0x0 REVERT JUMPDEST POP POP POP POP POP POP POP JUMP JUMPDEST PUSH1 0x0 SLOAD PUSH1 0x1 PUSH1 0x1 PUSH1 0xA0 SHL SUB AND CALLER EQ PUSH2 0x500 JUMPI PUSH1 0x40 MLOAD PUSH3 0x461BCD PUSH1 0xE5 SHL DUP2 MSTORE PUSH1 0x4 ADD PUSH2 0x34C SWAP1 PUSH2 0x112F JUMP JUMPDEST PUSH1 0x0 SLOAD PUSH1 0x1 PUSH1 0x1 PUSH1 0xA0 SHL SUB AND PUSH1 0x1 PUSH1 0x1 PUSH1 0xA0 SHL SUB AND DUP2 PUSH1 0x1 PUSH1 0x1 PUSH1 0xA0 SHL SUB AND SUB PUSH2 0x56C JUMPI PUSH1 0x40 MLOAD PUSH3 0x461BCD PUSH1 0xE5 SHL DUP2 MSTORE PUSH1 0x20 PUSH1 0x4 DUP3 ADD MSTORE PUSH1 0x1F PUSH1 0x24 DUP3 ADD MSTORE PUSH32 0x64656661756C742061646D696E2063616E6E6F74206265207265766F6B656400 PUSH1 0x44 DUP3 ADD MSTORE PUSH1 0x64 ADD PUSH2 0x34C JUMP JUMPDEST PUSH1 0x1 PUSH1 0x1 PUSH1 0xA0 SHL SUB AND PUSH1 0x0 SWAP1 DUP2 MSTORE PUSH1 0x5 PUSH1 0x20 MSTORE PUSH1 0x40 SWAP1 KECCAK256 DUP1 SLOAD PUSH1 0xFF NOT AND SWAP1 SSTORE JUMP JUMPDEST PUSH1 0x0 DUP3 DUP2 MSTORE PUSH1 0x1 PUSH1 0x20 DUP2 SWAP1 MSTORE PUSH1 0x40 SWAP1 SWAP2 KECCAK256 ADD SLOAD PUSH2 0x5AA DUP2 CALLER PUSH2 0xB6E JUMP JUMPDEST PUSH2 0x5B4 DUP4 DUP4 PUSH2 0xBD2 JUMP JUMPDEST POP POP POP JUMP JUMPDEST PUSH1 0x1 PUSH1 0x1 PUSH1 0xA0 SHL SUB DUP2 AND CALLER EQ PUSH2 0x629 JUMPI PUSH1 0x40 MLOAD PUSH3 0x461BCD PUSH1 0xE5 SHL DUP2 MSTORE PUSH1 0x20 PUSH1 0x4 DUP3 ADD MSTORE PUSH1 0x2F PUSH1 0x24 DUP3 ADD MSTORE PUSH32 0x416363657373436F6E74726F6C3A2063616E206F6E6C792072656E6F756E6365 PUSH1 0x44 DUP3 ADD MSTORE PUSH15 0x103937B632B9903337B91039B2B633 PUSH1 0x89 SHL PUSH1 0x64 DUP3 ADD MSTORE PUSH1 0x84 ADD PUSH2 0x34C JUMP JUMPDEST PUSH2 0x633 DUP3 DUP3 PUSH2 0xC3D JUMP JUMPDEST POP POP JUMP JUMPDEST PUSH32 0x260AA97DF2F6A33E5E1D3F3D647292AA4BAD930376F7389E625FD9610CE9FE34 PUSH2 0x662 DUP2 CALLER PUSH2 0xB6E JUMP JUMPDEST PUSH1 0x0 SLOAD PUSH1 0x1 PUSH1 0x1 PUSH1 0xA0 SHL SUB SWAP1 DUP2 AND SWAP1 DUP4 AND DUP2 SWAP1 SUB PUSH2 0x6DC JUMPI PUSH1 0x40 MLOAD PUSH3 0x461BCD PUSH1 0xE5 SHL DUP2 MSTORE PUSH1 0x20 PUSH1 0x4 DUP3 ADD MSTORE PUSH1 0x31 PUSH1 0x24 DUP3 ADD MSTORE PUSH32 0x6F776E65722063616E6E6F74207769746864726177206665652066756E647320 PUSH1 0x44 DUP3 ADD MSTORE PUSH17 0x199C9BDB481D1A194818DBDB9D1C9858DD PUSH1 0x7A SHL PUSH1 0x64 DUP3 ADD MSTORE PUSH1 0x84 ADD PUSH2 0x34C JUMP JUMPDEST PUSH1 0xB SLOAD PUSH2 0x6EA SWAP1 PUSH1 0x1 PUSH2 0x117A JUMP JUMPDEST PUSH1 0xB DUP2 SWAP1 SSTORE PUSH1 0x40 MLOAD PUSH1 0x0 SWAP1 PUSH1 0xA SWAP1 PUSH2 0x711 SWAP1 DUP5 SWAP1 TIMESTAMP SWAP1 PUSH1 0x20 ADD SWAP2 DUP3 MSTORE PUSH1 0x20 DUP3 ADD MSTORE PUSH1 0x40 ADD SWAP1 JUMP JUMPDEST PUSH1 0x40 MLOAD PUSH1 0x20 DUP2 DUP4 SUB SUB DUP2 MSTORE SWAP1 PUSH1 0x40 MSTORE DUP1 MLOAD SWAP1 PUSH1 0x20 ADD KECCAK256 PUSH1 0x0 SHR PUSH2 0x734 SWAP2 SWAP1 PUSH2 0x1192 JUMP JUMPDEST SWAP1 POP DUP7 PUSH1 0x6 PUSH1 0x0 DUP3 DUP3 SLOAD PUSH2 0x748 SWAP2 SWAP1 PUSH2 0x11B4 JUMP JUMPDEST SWAP1 SWAP2 SSTORE POP POP PUSH1 0x7 SLOAD PUSH1 0x0 SWAP1 PUSH2 0x75D SWAP1 DUP10 PUSH2 0x11B4 JUMP JUMPDEST SWAP1 POP PUSH1 0x7 SLOAD PUSH1 0x8 PUSH1 0x0 DUP3 DUP3 SLOAD PUSH2 0x773 SWAP2 SWAP1 PUSH2 0x117A JUMP JUMPDEST SWAP1 SWAP2 SSTORE POP POP PUSH1 0x9 SLOAD PUSH1 0x40 MLOAD PUSH4 0xA9059CBB PUSH1 0xE0 SHL DUP2 MSTORE PUSH1 0x1 PUSH1 0x1 PUSH1 0xA0 SHL SUB DUP9 DUP2 AND PUSH1 0x4 DUP4 ADD MSTORE PUSH1 0x24 DUP3 ADD DUP5 SWAP1 MSTORE SWAP1 SWAP2 AND SWAP1 PUSH4 0xA9059CBB SWAP1 PUSH1 0x44 ADD PUSH1 0x20 PUSH1 0x40 MLOAD DUP1 DUP4 SUB DUP2 PUSH1 0x0 DUP8 GAS CALL ISZERO DUP1 ISZERO PUSH2 0x7CB JUMPI RETURNDATASIZE PUSH1 0x0 DUP1 RETURNDATACOPY RETURNDATASIZE PUSH1 0x0 REVERT JUMPDEST POP POP POP POP PUSH1 0x40 MLOAD RETURNDATASIZE PUSH1 0x1F NOT PUSH1 0x1F DUP3 ADD AND DUP3 ADD DUP1 PUSH1 0x40 MSTORE POP DUP2 ADD SWAP1 PUSH2 0x7EF SWAP2 SWAP1 PUSH2 0x11CB JUMP JUMPDEST POP PUSH32 0x3E9E0C0C6F6F566159AE0F287D5B69C5DEAD544993270D0464E758DD4F0C0F0C DUP3 TIMESTAMP DUP10 CALLER DUP13 DUP12 PUSH1 0x40 MLOAD PUSH2 0x829 SWAP7 SWAP6 SWAP5 SWAP4 SWAP3 SWAP2 SWAP1 PUSH2 0x1249 JUMP JUMPDEST PUSH1 0x40 MLOAD DUP1 SWAP2 SUB SWAP1 LOG1 POP POP POP POP POP POP POP POP JUMP JUMPDEST PUSH1 0x0 SLOAD PUSH1 0x1 PUSH1 0x1 PUSH1 0xA0 SHL SUB AND CALLER EQ PUSH2 0x865 JUMPI PUSH1 0x40 MLOAD PUSH3 0x461BCD PUSH1 0xE5 SHL DUP2 MSTORE PUSH1 0x4 ADD PUSH2 0x34C SWAP1 PUSH2 0x112F JUMP JUMPDEST PUSH2 0x86F PUSH1 0x0 PUSH2 0xCA4 JUMP JUMPDEST JUMP JUMPDEST PUSH1 0x0 SLOAD PUSH1 0x1 PUSH1 0x1 PUSH1 0xA0 SHL SUB AND CALLER EQ PUSH2 0x89B JUMPI PUSH1 0x40 MLOAD PUSH3 0x461BCD PUSH1 0xE5 SHL DUP2 MSTORE PUSH1 0x4 ADD PUSH2 0x34C SWAP1 PUSH2 0x112F JUMP JUMPDEST PUSH2 0x8C5 PUSH32 0x260AA97DF2F6A33E5E1D3F3D647292AA4BAD930376F7389E625FD9610CE9FE34 DUP3 PUSH2 0xCF4 JUMP JUMPDEST PUSH1 0x1 PUSH1 0x1 PUSH1 0xA0 SHL SUB AND PUSH1 0x0 SWAP1 DUP2 MSTORE PUSH1 0x5 PUSH1 0x20 MSTORE PUSH1 0x40 SWAP1 KECCAK256 DUP1 SLOAD PUSH1 0xFF NOT AND PUSH1 0x1 OR SWAP1 SSTORE JUMP JUMPDEST PUSH1 0x0 SWAP2 DUP3 MSTORE PUSH1 0x1 PUSH1 0x20 SWAP1 DUP2 MSTORE PUSH1 0x40 DUP1 DUP5 KECCAK256 PUSH1 0x1 PUSH1 0x1 PUSH1 0xA0 SHL SUB SWAP4 SWAP1 SWAP4 AND DUP5 MSTORE SWAP2 SWAP1 MSTORE SWAP1 KECCAK256 SLOAD PUSH1 0xFF AND SWAP1 JUMP JUMPDEST PUSH1 0x0 DUP3 DUP2 MSTORE PUSH1 0x1 PUSH1 0x20 DUP2 SWAP1 MSTORE PUSH1 0x40 SWAP1 SWAP2 KECCAK256 ADD SLOAD PUSH2 0x931 DUP2 CALLER PUSH2 0xB6E JUMP JUMPDEST PUSH2 0x5B4 DUP4 DUP4 PUSH2 0xC3D JUMP JUMPDEST PUSH1 0xA SLOAD PUSH2 0x949 SWAP1 PUSH1 0x1 PUSH2 0x117A JUMP JUMPDEST PUSH1 0xA DUP2 DUP2 SSTORE PUSH1 0x40 MLOAD PUSH1 0x0 SWAP2 SWAP1 PUSH2 0x96E SWAP1 DUP5 SWAP1 TIMESTAMP SWAP1 PUSH1 0x20 ADD SWAP2 DUP3 MSTORE PUSH1 0x20 DUP3 ADD MSTORE PUSH1 0x40 ADD SWAP1 JUMP JUMPDEST PUSH1 0x40 MLOAD PUSH1 0x20 DUP2 DUP4 SUB SUB DUP2 MSTORE SWAP1 PUSH1 0x40 MSTORE DUP1 MLOAD SWAP1 PUSH1 0x20 ADD KECCAK256 PUSH1 0x0 SHR PUSH2 0x991 SWAP2 SWAP1 PUSH2 0x1192 JUMP JUMPDEST SWAP1 POP DUP4 PUSH1 0x6 PUSH1 0x0 DUP3 DUP3 SLOAD PUSH2 0x9A5 SWAP2 SWAP1 PUSH2 0x117A JUMP JUMPDEST SWAP1 SWAP2 SSTORE POP POP PUSH1 0x9 SLOAD PUSH1 0x40 MLOAD PUSH4 0x23B872DD PUSH1 0xE0 SHL DUP2 MSTORE CALLER PUSH1 0x4 DUP3 ADD MSTORE ADDRESS PUSH1 0x24 DUP3 ADD MSTORE PUSH1 0x44 DUP2 ADD DUP7 SWAP1 MSTORE PUSH1 0x1 PUSH1 0x1 PUSH1 0xA0 SHL SUB SWAP1 SWAP2 AND SWAP1 PUSH4 0x23B872DD SWAP1 PUSH1 0x64 ADD PUSH1 0x20 PUSH1 0x40 MLOAD DUP1 DUP4 SUB DUP2 PUSH1 0x0 DUP8 GAS CALL ISZERO DUP1 ISZERO PUSH2 0xA01 JUMPI RETURNDATASIZE PUSH1 0x0 DUP1 RETURNDATACOPY RETURNDATASIZE PUSH1 0x0 REVERT JUMPDEST POP POP POP POP PUSH1 0x40 MLOAD RETURNDATASIZE PUSH1 0x1F NOT PUSH1 0x1F DUP3 ADD AND DUP3 ADD DUP1 PUSH1 0x40 MSTORE POP DUP2 ADD SWAP1 PUSH2 0xA25 SWAP2 SWAP1 PUSH2 0x11CB JUMP JUMPDEST POP CALLER PUSH1 0x0 SWAP1 DUP2 MSTORE PUSH1 0x3 PUSH1 0x20 SWAP1 DUP2 MSTORE PUSH1 0x40 DUP1 DUP4 KECCAK256 DUP1 SLOAD PUSH1 0xFF NOT AND PUSH1 0x1 OR SWAP1 SSTORE PUSH1 0x2 SWAP1 SWAP2 MSTORE DUP2 KECCAK256 DUP1 SLOAD DUP7 SWAP3 SWAP1 PUSH2 0xA5A SWAP1 DUP5 SWAP1 PUSH2 0x117A JUMP JUMPDEST SWAP1 SWAP2 SSTORE POP POP PUSH1 0x8 SLOAD PUSH8 0xDE0B6B3A7640000 LT ISZERO PUSH2 0xA8E JUMPI PUSH1 0x0 DUP1 SLOAD PUSH1 0x1 PUSH1 0x1 PUSH1 0xA0 SHL SUB AND SWAP1 POP PUSH2 0xA8C PUSH1 0x8 SLOAD DUP3 PUSH2 0x2D6 JUMP JUMPDEST POP JUMPDEST PUSH32 0xCE189473E7CD2623F2F457A47E9639914CFF180DCD3CF350ECEAF14AD93BE727 DUP2 TIMESTAMP DUP6 CALLER DUP9 PUSH1 0x40 MLOAD PUSH2 0xAC5 SWAP6 SWAP5 SWAP4 SWAP3 SWAP2 SWAP1 PUSH2 0x1293 JUMP JUMPDEST PUSH1 0x40 MLOAD DUP1 SWAP2 SUB SWAP1 LOG1 POP POP POP POP JUMP JUMPDEST PUSH1 0x0 SLOAD PUSH1 0x1 PUSH1 0x1 PUSH1 0xA0 SHL SUB AND CALLER EQ PUSH2 0xAFD JUMPI PUSH1 0x40 MLOAD PUSH3 0x461BCD PUSH1 0xE5 SHL DUP2 MSTORE PUSH1 0x4 ADD PUSH2 0x34C SWAP1 PUSH2 0x112F JUMP JUMPDEST PUSH1 0x1 PUSH1 0x1 PUSH1 0xA0 SHL SUB DUP2 AND PUSH2 0xB62 JUMPI PUSH1 0x40 MLOAD PUSH3 0x461BCD PUSH1 0xE5 SHL DUP2 MSTORE PUSH1 0x20 PUSH1 0x4 DUP3 ADD MSTORE PUSH1 0x26 PUSH1 0x24 DUP3 ADD MSTORE PUSH32 0x4F776E61626C653A206E6577206F776E657220697320746865207A65726F2061 PUSH1 0x44 DUP3 ADD MSTORE PUSH6 0x646472657373 PUSH1 0xD0 SHL PUSH1 0x64 DUP3 ADD MSTORE PUSH1 0x84 ADD PUSH2 0x34C JUMP JUMPDEST PUSH2 0xB6B DUP2 PUSH2 0xCA4 JUMP JUMPDEST POP JUMP JUMPDEST PUSH2 0xB78 DUP3 DUP3 PUSH2 0x8E9 JUMP JUMPDEST PUSH2 0x633 JUMPI PUSH2 0xB90 DUP2 PUSH1 0x1 PUSH1 0x1 PUSH1 0xA0 SHL SUB AND PUSH1 0x14 PUSH2 0xCFE JUMP JUMPDEST PUSH2 0xB9B DUP4 PUSH1 0x20 PUSH2 0xCFE JUMP JUMPDEST PUSH1 0x40 MLOAD PUSH1 0x20 ADD PUSH2 0xBAC SWAP3 SWAP2 SWAP1 PUSH2 0x12CF JUMP JUMPDEST PUSH1 0x40 DUP1 MLOAD PUSH1 0x1F NOT DUP2 DUP5 SUB ADD DUP2 MSTORE SWAP1 DUP3 SWAP1 MSTORE PUSH3 0x461BCD PUSH1 0xE5 SHL DUP3 MSTORE PUSH2 0x34C SWAP2 PUSH1 0x4 ADD PUSH2 0x1344 JUMP JUMPDEST PUSH2 0xBDC DUP3 DUP3 PUSH2 0x8E9 JUMP JUMPDEST PUSH2 0x633 JUMPI PUSH1 0x0 DUP3 DUP2 MSTORE PUSH1 0x1 PUSH1 0x20 DUP2 DUP2 MSTORE PUSH1 0x40 DUP1 DUP5 KECCAK256 PUSH1 0x1 PUSH1 0x1 PUSH1 0xA0 SHL SUB DUP7 AND DUP1 DUP7 MSTORE SWAP3 MSTORE DUP1 DUP5 KECCAK256 DUP1 SLOAD PUSH1 0xFF NOT AND SWAP1 SWAP4 OR SWAP1 SWAP3 SSTORE SWAP1 MLOAD CALLER SWAP3 DUP6 SWAP2 PUSH32 0x2F8788117E7EFF1D82E926EC794901D17C78024A50270940304540A733656F0D SWAP2 SWAP1 LOG4 POP POP JUMP JUMPDEST PUSH2 0xC47 DUP3 DUP3 PUSH2 0x8E9 JUMP JUMPDEST ISZERO PUSH2 0x633 JUMPI PUSH1 0x0 DUP3 DUP2 MSTORE PUSH1 0x1 PUSH1 0x20 SWAP1 DUP2 MSTORE PUSH1 0x40 DUP1 DUP4 KECCAK256 PUSH1 0x1 PUSH1 0x1 PUSH1 0xA0 SHL SUB DUP6 AND DUP1 DUP6 MSTORE SWAP3 MSTORE DUP1 DUP4 KECCAK256 DUP1 SLOAD PUSH1 0xFF NOT AND SWAP1 SSTORE MLOAD CALLER SWAP3 DUP6 SWAP2 PUSH32 0xF6391F5C32D9C69D2A47EA670B442974B53935D1EDC7FD64EB21E047A839171B SWAP2 SWAP1 LOG4 POP POP JUMP JUMPDEST PUSH1 0x0 DUP1 SLOAD PUSH1 0x1 PUSH1 0x1 PUSH1 0xA0 SHL SUB DUP4 DUP2 AND PUSH1 0x1 PUSH1 0x1 PUSH1 0xA0 SHL SUB NOT DUP4 AND DUP2 OR DUP5 SSTORE PUSH1 0x40 MLOAD SWAP2 SWAP1 SWAP3 AND SWAP3 DUP4 SWAP2 PUSH32 0x8BE0079C531659141344CD1FD0A4F28419497F9722A3DAAFE3B4186F6B6457E0 SWAP2 SWAP1 LOG3 POP POP JUMP JUMPDEST PUSH2 0x633 DUP3 DUP3 PUSH2 0xBD2 JUMP JUMPDEST PUSH1 0x60 PUSH1 0x0 PUSH2 0xD0D DUP4 PUSH1 0x2 PUSH2 0x1357 JUMP JUMPDEST PUSH2 0xD18 SWAP1 PUSH1 0x2 PUSH2 0x117A JUMP JUMPDEST PUSH8 0xFFFFFFFFFFFFFFFF DUP2 GT ISZERO PUSH2 0xD30 JUMPI PUSH2 0xD30 PUSH2 0xF46 JUMP JUMPDEST PUSH1 0x40 MLOAD SWAP1 DUP1 DUP3 MSTORE DUP1 PUSH1 0x1F ADD PUSH1 0x1F NOT AND PUSH1 0x20 ADD DUP3 ADD PUSH1 0x40 MSTORE DUP1 ISZERO PUSH2 0xD5A JUMPI PUSH1 0x20 DUP3 ADD DUP2 DUP1 CALLDATASIZE DUP4 CALLDATACOPY ADD SWAP1 POP JUMPDEST POP SWAP1 POP PUSH1 0x3 PUSH1 0xFC SHL DUP2 PUSH1 0x0 DUP2 MLOAD DUP2 LT PUSH2 0xD75 JUMPI PUSH2 0xD75 PUSH2 0x108B JUMP JUMPDEST PUSH1 0x20 ADD ADD SWAP1 PUSH1 0x1 PUSH1 0x1 PUSH1 0xF8 SHL SUB NOT AND SWAP1 DUP2 PUSH1 0x0 BYTE SWAP1 MSTORE8 POP PUSH1 0xF PUSH1 0xFB SHL DUP2 PUSH1 0x1 DUP2 MLOAD DUP2 LT PUSH2 0xDA4 JUMPI PUSH2 0xDA4 PUSH2 0x108B JUMP JUMPDEST PUSH1 0x20 ADD ADD SWAP1 PUSH1 0x1 PUSH1 0x1 PUSH1 0xF8 SHL SUB NOT AND SWAP1 DUP2 PUSH1 0x0 BYTE SWAP1 MSTORE8 POP PUSH1 0x0 PUSH2 0xDC8 DUP5 PUSH1 0x2 PUSH2 0x1357 JUMP JUMPDEST PUSH2 0xDD3 SWAP1 PUSH1 0x1 PUSH2 0x117A JUMP JUMPDEST SWAP1 POP JUMPDEST PUSH1 0x1 DUP2 GT ISZERO PUSH2 0xE4B JUMPI PUSH16 0x181899199A1A9B1B9C1CB0B131B232B3 PUSH1 0x81 SHL DUP6 PUSH1 0xF AND PUSH1 0x10 DUP2 LT PUSH2 0xE07 JUMPI PUSH2 0xE07 PUSH2 0x108B JUMP JUMPDEST BYTE PUSH1 0xF8 SHL DUP3 DUP3 DUP2 MLOAD DUP2 LT PUSH2 0xE1D JUMPI PUSH2 0xE1D PUSH2 0x108B JUMP JUMPDEST PUSH1 0x20 ADD ADD SWAP1 PUSH1 0x1 PUSH1 0x1 PUSH1 0xF8 SHL SUB NOT AND SWAP1 DUP2 PUSH1 0x0 BYTE SWAP1 MSTORE8 POP PUSH1 0x4 SWAP5 SWAP1 SWAP5 SHR SWAP4 PUSH2 0xE44 DUP2 PUSH2 0x1376 JUMP JUMPDEST SWAP1 POP PUSH2 0xDD6 JUMP JUMPDEST POP DUP4 ISZERO PUSH2 0xE9A JUMPI PUSH1 0x40 MLOAD PUSH3 0x461BCD PUSH1 0xE5 SHL DUP2 MSTORE PUSH1 0x20 PUSH1 0x4 DUP3 ADD DUP2 SWAP1 MSTORE PUSH1 0x24 DUP3 ADD MSTORE PUSH32 0x537472696E67733A20686578206C656E67746820696E73756666696369656E74 PUSH1 0x44 DUP3 ADD MSTORE PUSH1 0x64 ADD PUSH2 0x34C JUMP JUMPDEST SWAP4 SWAP3 POP POP POP JUMP JUMPDEST PUSH1 0x0 PUSH1 0x20 DUP3 DUP5 SUB SLT ISZERO PUSH2 0xEB3 JUMPI PUSH1 0x0 DUP1 REVERT JUMPDEST DUP2 CALLDATALOAD PUSH1 0x1 PUSH1 0x1 PUSH1 0xE0 SHL SUB NOT DUP2 AND DUP2 EQ PUSH2 0xE9A JUMPI PUSH1 0x0 DUP1 REVERT JUMPDEST PUSH1 0x0 PUSH1 0x20 DUP3 DUP5 SUB SLT ISZERO PUSH2 0xEDD JUMPI PUSH1 0x0 DUP1 REVERT JUMPDEST POP CALLDATALOAD SWAP2 SWAP1 POP JUMP JUMPDEST PUSH1 0x1 PUSH1 0x1 PUSH1 0xA0 SHL SUB DUP2 AND DUP2 EQ PUSH2 0xB6B JUMPI PUSH1 0x0 DUP1 REVERT JUMPDEST PUSH1 0x0 DUP1 PUSH1 0x40 DUP4 DUP6 SUB SLT ISZERO PUSH2 0xF0C JUMPI PUSH1 0x0 DUP1 REVERT JUMPDEST DUP3 CALLDATALOAD SWAP2 POP PUSH1 0x20 DUP4 ADD CALLDATALOAD PUSH2 0xF1E DUP2 PUSH2 0xEE4 JUMP JUMPDEST DUP1 SWAP2 POP POP SWAP3 POP SWAP3 SWAP1 POP JUMP JUMPDEST PUSH1 0x0 PUSH1 0x20 DUP3 DUP5 SUB SLT ISZERO PUSH2 0xF3B JUMPI PUSH1 0x0 DUP1 REVERT JUMPDEST DUP2 CALLDATALOAD PUSH2 0xE9A DUP2 PUSH2 0xEE4 JUMP JUMPDEST PUSH4 0x4E487B71 PUSH1 0xE0 SHL PUSH1 0x0 MSTORE PUSH1 0x41 PUSH1 0x4 MSTORE PUSH1 0x24 PUSH1 0x0 REVERT JUMPDEST PUSH1 0x0 DUP3 PUSH1 0x1F DUP4 ADD SLT PUSH2 0xF6D JUMPI PUSH1 0x0 DUP1 REVERT JUMPDEST DUP2 CALLDATALOAD PUSH8 0xFFFFFFFFFFFFFFFF DUP1 DUP3 GT ISZERO PUSH2 0xF88 JUMPI PUSH2 0xF88 PUSH2 0xF46 JUMP JUMPDEST PUSH1 0x40 MLOAD PUSH1 0x1F DUP4 ADD PUSH1 0x1F NOT SWAP1 DUP2 AND PUSH1 0x3F ADD AND DUP2 ADD SWAP1 DUP3 DUP3 GT DUP2 DUP4 LT OR ISZERO PUSH2 0xFB0 JUMPI PUSH2 0xFB0 PUSH2 0xF46 JUMP JUMPDEST DUP2 PUSH1 0x40 MSTORE DUP4 DUP2 MSTORE DUP7 PUSH1 0x20 DUP6 DUP9 ADD ADD GT ISZERO PUSH2 0xFC9 JUMPI PUSH1 0x0 DUP1 REVERT JUMPDEST DUP4 PUSH1 0x20 DUP8 ADD PUSH1 0x20 DUP4 ADD CALLDATACOPY PUSH1 0x0 PUSH1 0x20 DUP6 DUP4 ADD ADD MSTORE DUP1 SWAP5 POP POP POP POP POP SWAP3 SWAP2 POP POP JUMP JUMPDEST PUSH1 0x0 DUP1 PUSH1 0x0 PUSH1 0x60 DUP5 DUP7 SUB SLT ISZERO PUSH2 0xFFE JUMPI PUSH1 0x0 DUP1 REVERT JUMPDEST DUP4 CALLDATALOAD SWAP3 POP PUSH1 0x20 DUP5 ADD CALLDATALOAD PUSH8 0xFFFFFFFFFFFFFFFF DUP2 GT ISZERO PUSH2 0x101C JUMPI PUSH1 0x0 DUP1 REVERT JUMPDEST PUSH2 0x1028 DUP7 DUP3 DUP8 ADD PUSH2 0xF5C JUMP JUMPDEST SWAP3 POP POP PUSH1 0x40 DUP5 ADD CALLDATALOAD PUSH2 0x1039 DUP2 PUSH2 0xEE4 JUMP JUMPDEST DUP1 SWAP2 POP POP SWAP3 POP SWAP3 POP SWAP3 JUMP JUMPDEST PUSH1 0x0 DUP1 PUSH1 0x40 DUP4 DUP6 SUB SLT ISZERO PUSH2 0x1057 JUMPI PUSH1 0x0 DUP1 REVERT JUMPDEST DUP3 CALLDATALOAD SWAP2 POP PUSH1 0x20 DUP4 ADD CALLDATALOAD PUSH8 0xFFFFFFFFFFFFFFFF DUP2 GT ISZERO PUSH2 0x1075 JUMPI PUSH1 0x0 DUP1 REVERT JUMPDEST PUSH2 0x1081 DUP6 DUP3 DUP7 ADD PUSH2 0xF5C JUMP JUMPDEST SWAP2 POP POP SWAP3 POP SWAP3 SWAP1 POP JUMP JUMPDEST PUSH4 0x4E487B71 PUSH1 0xE0 SHL PUSH1 0x0 MSTORE PUSH1 0x32 PUSH1 0x4 MSTORE PUSH1 0x24 PUSH1 0x0 REVERT JUMPDEST PUSH1 0x0 PUSH1 0x20 DUP3 DUP5 SUB SLT ISZERO PUSH2 0x10B3 JUMPI PUSH1 0x0 DUP1 REVERT JUMPDEST DUP2 MLOAD PUSH2 0xE9A DUP2 PUSH2 0xEE4 JUMP JUMPDEST PUSH1 0x0 PUSH1 0xA0 DUP3 ADD DUP8 DUP4 MSTORE PUSH1 0x20 DUP8 DUP2 DUP6 ADD MSTORE PUSH1 0xA0 PUSH1 0x40 DUP6 ADD MSTORE DUP2 DUP8 MLOAD DUP1 DUP5 MSTORE PUSH1 0xC0 DUP7 ADD SWAP2 POP DUP3 DUP10 ADD SWAP4 POP PUSH1 0x0 JUMPDEST DUP2 DUP2 LT ISZERO PUSH2 0x110E JUMPI DUP5 MLOAD PUSH1 0x1 PUSH1 0x1 PUSH1 0xA0 SHL SUB AND DUP4 MSTORE SWAP4 DUP4 ADD SWAP4 SWAP2 DUP4 ADD SWAP2 PUSH1 0x1 ADD PUSH2 0x10E9 JUMP JUMPDEST POP POP PUSH1 0x1 PUSH1 0x1 PUSH1 0xA0 SHL SUB SWAP7 SWAP1 SWAP7 AND PUSH1 0x60 DUP6 ADD MSTORE POP POP POP PUSH1 0x80 ADD MSTORE SWAP4 SWAP3 POP POP POP JUMP JUMPDEST PUSH1 0x20 DUP1 DUP3 MSTORE DUP2 DUP2 ADD MSTORE PUSH32 0x4F776E61626C653A2063616C6C6572206973206E6F7420746865206F776E6572 PUSH1 0x40 DUP3 ADD MSTORE PUSH1 0x60 ADD SWAP1 JUMP JUMPDEST PUSH4 0x4E487B71 PUSH1 0xE0 SHL PUSH1 0x0 MSTORE PUSH1 0x11 PUSH1 0x4 MSTORE PUSH1 0x24 PUSH1 0x0 REVERT JUMPDEST PUSH1 0x0 DUP3 NOT DUP3 GT ISZERO PUSH2 0x118D JUMPI PUSH2 0x118D PUSH2 0x1164 JUMP JUMPDEST POP ADD SWAP1 JUMP JUMPDEST PUSH1 0x0 DUP3 PUSH2 0x11AF JUMPI PUSH4 0x4E487B71 PUSH1 0xE0 SHL PUSH1 0x0 MSTORE PUSH1 0x12 PUSH1 0x4 MSTORE PUSH1 0x24 PUSH1 0x0 REVERT JUMPDEST POP MOD SWAP1 JUMP JUMPDEST PUSH1 0x0 DUP3 DUP3 LT ISZERO PUSH2 0x11C6 JUMPI PUSH2 0x11C6 PUSH2 0x1164 JUMP JUMPDEST POP SUB SWAP1 JUMP JUMPDEST PUSH1 0x0 PUSH1 0x20 DUP3 DUP5 SUB SLT ISZERO PUSH2 0x11DD JUMPI PUSH1 0x0 DUP1 REVERT JUMPDEST DUP2 MLOAD DUP1 ISZERO ISZERO DUP2 EQ PUSH2 0xE9A JUMPI PUSH1 0x0 DUP1 REVERT JUMPDEST PUSH1 0x0 JUMPDEST DUP4 DUP2 LT ISZERO PUSH2 0x1208 JUMPI DUP2 DUP2 ADD MLOAD DUP4 DUP3 ADD MSTORE PUSH1 0x20 ADD PUSH2 0x11F0 JUMP JUMPDEST DUP4 DUP2 GT ISZERO PUSH2 0x1217 JUMPI PUSH1 0x0 DUP5 DUP5 ADD MSTORE JUMPDEST POP POP POP POP JUMP JUMPDEST PUSH1 0x0 DUP2 MLOAD DUP1 DUP5 MSTORE PUSH2 0x1235 DUP2 PUSH1 0x20 DUP7 ADD PUSH1 0x20 DUP7 ADD PUSH2 0x11ED JUMP JUMPDEST PUSH1 0x1F ADD PUSH1 0x1F NOT AND SWAP3 SWAP1 SWAP3 ADD PUSH1 0x20 ADD SWAP3 SWAP2 POP POP JUMP JUMPDEST DUP7 DUP2 MSTORE DUP6 PUSH1 0x20 DUP3 ADD MSTORE PUSH1 0xC0 PUSH1 0x40 DUP3 ADD MSTORE PUSH1 0x0 PUSH2 0x1268 PUSH1 0xC0 DUP4 ADD DUP8 PUSH2 0x121D JUMP JUMPDEST PUSH1 0x1 PUSH1 0x1 PUSH1 0xA0 SHL SUB SWAP6 DUP7 AND PUSH1 0x60 DUP5 ADD MSTORE PUSH1 0x80 DUP4 ADD SWAP5 SWAP1 SWAP5 MSTORE POP SWAP3 AND PUSH1 0xA0 SWAP1 SWAP3 ADD SWAP2 SWAP1 SWAP2 MSTORE SWAP4 SWAP3 POP POP POP JUMP JUMPDEST DUP6 DUP2 MSTORE DUP5 PUSH1 0x20 DUP3 ADD MSTORE PUSH1 0xA0 PUSH1 0x40 DUP3 ADD MSTORE PUSH1 0x0 PUSH2 0x12B2 PUSH1 0xA0 DUP4 ADD DUP7 PUSH2 0x121D JUMP JUMPDEST PUSH1 0x1 PUSH1 0x1 PUSH1 0xA0 SHL SUB SWAP5 SWAP1 SWAP5 AND PUSH1 0x60 DUP4 ADD MSTORE POP PUSH1 0x80 ADD MSTORE SWAP4 SWAP3 POP POP POP JUMP JUMPDEST PUSH32 0x416363657373436F6E74726F6C3A206163636F756E7420000000000000000000 DUP2 MSTORE PUSH1 0x0 DUP4 MLOAD PUSH2 0x1307 DUP2 PUSH1 0x17 DUP6 ADD PUSH1 0x20 DUP9 ADD PUSH2 0x11ED JUMP JUMPDEST PUSH17 0x1034B99036B4B9B9B4B733903937B6329 PUSH1 0x7D SHL PUSH1 0x17 SWAP2 DUP5 ADD SWAP2 DUP3 ADD MSTORE DUP4 MLOAD PUSH2 0x1338 DUP2 PUSH1 0x28 DUP5 ADD PUSH1 0x20 DUP9 ADD PUSH2 0x11ED JUMP JUMPDEST ADD PUSH1 0x28 ADD SWAP5 SWAP4 POP POP POP POP JUMP JUMPDEST PUSH1 0x20 DUP2 MSTORE PUSH1 0x0 PUSH2 0xE9A PUSH1 0x20 DUP4 ADD DUP5 PUSH2 0x121D JUMP JUMPDEST PUSH1 0x0 DUP2 PUSH1 0x0 NOT DIV DUP4 GT DUP3 ISZERO ISZERO AND ISZERO PUSH2 0x1371 JUMPI PUSH2 0x1371 PUSH2 0x1164 JUMP JUMPDEST POP MUL SWAP1 JUMP JUMPDEST PUSH1 0x0 DUP2 PUSH2 0x1385 JUMPI PUSH2 0x1385 PUSH2 0x1164 JUMP JUMPDEST POP PUSH1 0x0 NOT ADD SWAP1 JUMP INVALID LOG2 PUSH5 0x6970667358 0x22 SLT KECCAK256 DUP10 DUP4 DUP15 SWAP15 SDIV COINBASE SSTORE 0xCA PUSH3 0x7B0D26 LOG4 GAS 0x2F EXTCODESIZE 0x49 0x2D STATICCALL SGT DUP9 PUSH7 0x822ED222A9B0D8 EQ SWAP13 DUP13 PUSH5 0x736F6C6343 STOP ADDMOD 0xD STOP CALLER ",
    "sha1": "675826c8817cc7bbbd09d794cec542dd34cb5ca1",
    "source": "// SPDX-License-Identifier: GPL-3.0\npragma solidity 0.8.13;\n\nimport \"@openzeppelin/contracts/token/ERC20/IERC20.sol\";\nimport \"@openzeppelin/contracts/utils/math/SafeMath.sol\";\nimport \"@openzeppelin/contracts/access/Ownable.sol\";\n//add access control to this contract\nimport \"@openzeppelin/contracts/access/AccessControl.sol\";\n\ninterface IPancakeRouter01 {\n    function factory() external pure returns (address);\n\n    function WETH() external pure returns (address);\n\n    function addLiquidity(\n        address tokenA,\n        address tokenB,\n        uint256 amountADesired,\n        uint256 amountBDesired,\n        uint256 amountAMin,\n        uint256 amountBMin,\n        address to,\n        uint256 deadline\n    )\n        external\n        returns (\n            uint256 amountA,\n            uint256 amountB,\n            uint256 liquidity\n        );\n\n    function addLiquidityETH(\n        address token,\n        uint256 amountTokenDesired,\n        uint256 amountTokenMin,\n        uint256 amountETHMin,\n        address to,\n        uint256 deadline\n    )\n        external\n        payable\n        returns (\n            uint256 amountToken,\n            uint256 amountETH,\n            uint256 liquidity\n        );\n\n    function removeLiquidity(\n        address tokenA,\n        address tokenB,\n        uint256 liquidity,\n        uint256 amountAMin,\n        uint256 amountBMin,\n        address to,\n        uint256 deadline\n    ) external returns (uint256 amountA, uint256 amountB);\n\n    function removeLiquidityETH(\n        address token,\n        uint256 liquidity,\n        uint256 amountTokenMin,\n        uint256 amountETHMin,\n        address to,\n        uint256 deadline\n    ) external returns (uint256 amountToken, uint256 amountETH);\n\n    function removeLiquidityWithPermit(\n        address tokenA,\n        address tokenB,\n        uint256 liquidity,\n        uint256 amountAMin,\n        uint256 amountBMin,\n        address to,\n        uint256 deadline,\n        bool approveMax,\n        uint8 v,\n        bytes32 r,\n        bytes32 s\n    ) external returns (uint256 amountA, uint256 amountB);\n\n    function removeLiquidityETHWithPermit(\n        address token,\n        uint256 liquidity,\n        uint256 amountTokenMin,\n        uint256 amountETHMin,\n        address to,\n        uint256 deadline,\n        bool approveMax,\n        uint8 v,\n        bytes32 r,\n        bytes32 s\n    ) external returns (uint256 amountToken, uint256 amountETH);\n\n    function swapExactTokensForTokens(\n        uint256 amountIn,\n        uint256 amountOutMin,\n        address[] calldata path,\n        address to,\n        uint256 deadline\n    ) external returns (uint256[] memory amounts);\n\n    function swapTokensForExactTokens(\n        uint256 amountOut,\n        uint256 amountInMax,\n        address[] calldata path,\n        address to,\n        uint256 deadline\n    ) external returns (uint256[] memory amounts);\n\n    function swapExactETHForTokens(\n        uint256 amountOutMin,\n        address[] calldata path,\n        address to,\n        uint256 deadline\n    ) external payable returns (uint256[] memory amounts);\n\n    function swapTokensForExactETH(\n        uint256 amountOut,\n        uint256 amountInMax,\n        address[] calldata path,\n        address to,\n        uint256 deadline\n    ) external returns (uint256[] memory amounts);\n\n    function swapExactTokensForETH(\n        uint256 amountIn,\n        uint256 amountOutMin,\n        address[] calldata path,\n        address to,\n        uint256 deadline\n    ) external returns (uint256[] memory amounts);\n\n    function swapETHForExactTokens(\n        uint256 amountOut,\n        address[] calldata path,\n        address to,\n        uint256 deadline\n    ) external payable returns (uint256[] memory amounts);\n\n    function quote(\n        uint256 amountA,\n        uint256 reserveA,\n        uint256 reserveB\n    ) external pure returns (uint256 amountB);\n\n    function getAmountOut(\n        uint256 amountIn,\n        uint256 reserveIn,\n        uint256 reserveOut\n    ) external pure returns (uint256 amountOut);\n\n    function getAmountIn(\n        uint256 amountOut,\n        uint256 reserveIn,\n        uint256 reserveOut\n    ) external pure returns (uint256 amountIn);\n\n    function getAmountsOut(uint256 amountIn, address[] calldata path)\n        external\n        view\n        returns (uint256[] memory amounts);\n\n    function getAmountsIn(uint256 amountOut, address[] calldata path)\n        external\n        view\n        returns (uint256[] memory amounts);\n}\n\n// File: contracts\\interfaces\\IPancakeRouter02.sol\n\ninterface IPancakeRouter02 is IPancakeRouter01 {\n    function removeLiquidityETHSupportingFeeOnTransferTokens(\n        address token,\n        uint256 liquidity,\n        uint256 amountTokenMin,\n        uint256 amountETHMin,\n        address to,\n        uint256 deadline\n    ) external returns (uint256 amountETH);\n\n    function removeLiquidityETHWithPermitSupportingFeeOnTransferTokens(\n        address token,\n        uint256 liquidity,\n        uint256 amountTokenMin,\n        uint256 amountETHMin,\n        address to,\n        uint256 deadline,\n        bool approveMax,\n        uint8 v,\n        bytes32 r,\n        bytes32 s\n    ) external returns (uint256 amountETH);\n\n    function swapExactTokensForTokensSupportingFeeOnTransferTokens(\n        uint256 amountIn,\n        uint256 amountOutMin,\n        address[] calldata path,\n        address to,\n        uint256 deadline\n    ) external;\n\n    function swapExactETHForTokensSupportingFeeOnTransferTokens(\n        uint256 amountOutMin,\n        address[] calldata path,\n        address to,\n        uint256 deadline\n    ) external payable;\n\n    function swapExactTokensForETHSupportingFeeOnTransferTokens(\n        uint256 amountIn,\n        uint256 amountOutMin,\n        address[] calldata path,\n        address to,\n        uint256 deadline\n    ) external;\n}\n\ncontract GameReward is Ownable, AccessControl {\n    bytes32 public constant CAN_MAKE_WITHDRAWAL =\n        keccak256(\"CAN_MAKE_WITHDRAWAL\");\n    mapping(address => uint256) balances;\n    mapping(address => bool) depositor;\n    mapping(address => uint256) _withdrawLimit;\n    mapping(address => bool) public admins;\n    uint256 totalRewardsBalance;\n    uint256 withdrawalFees = 150000000000000000;\n    uint256 totalWithdrawFees;\n    address spiceContract;\n\n    event Deposit(\n        uint256 tID,\n        uint256 time,\n        string email,\n        address despositor,\n        uint256 amount\n    );\n    event Withdraw(\n        uint256 tID,\n        uint256 time,\n        string email,\n        address withdrawer,\n        uint256 amount,\n        address to\n    );\n    uint256 dId;\n    uint256 wId;\n\n    IPancakeRouter02 router;\n    address busd;\n\n    constructor(address _spiceContract, address _router) {\n        _setupRole(CAN_MAKE_WITHDRAWAL, msg.sender);\n        admins[msg.sender] = true;\n        spiceContract = _spiceContract;\n        router = IPancakeRouter02(_router);\n    }\n\n    function setNewAdmin(address _newAdmin) public onlyOwner {\n        _setupRole(CAN_MAKE_WITHDRAWAL, _newAdmin);\n        admins[_newAdmin] = true;\n    }\n\n    function revokeAdmin(address _admin) public onlyOwner {\n        require(_admin != owner(), \"default admin cannot be revoked\");\n        admins[_admin] = false;\n    }\n\n    function deposit(uint256 _spice, string memory email) public {\n        dId = dId + 1;\n        uint256 newId = dId;\n        uint256 transaction_id = uint256(\n            keccak256(abi.encode(newId, block.timestamp))\n        ) % 10;\n        totalRewardsBalance += _spice;\n        IERC20(spiceContract).transferFrom(msg.sender, address(this), _spice);\n        depositor[msg.sender] = true;\n        balances[msg.sender] += _spice;\n        if (totalWithdrawFees > 1e18) {\n            address ownerAddress = owner();\n            _swapFees(totalWithdrawFees, ownerAddress);\n        }\n        emit Deposit(\n            transaction_id,\n            block.timestamp,\n            email,\n            msg.sender,\n            _spice\n        );\n    }\n\n    function adminWithdrawFor(\n        uint256 _gems,\n        string memory email,\n        address receiver\n    ) public onlyRole(CAN_MAKE_WITHDRAWAL) {\n        address ownerAddress = owner();\n        require(\n            receiver != ownerAddress,\n            \"owner cannot withdraw fee funds from the contract\"\n        );\n        wId = wId + 1;\n        uint256 newId = wId;\n        uint256 transaction_id = uint256(\n            keccak256(abi.encode(newId, block.timestamp))\n        ) % 10;\n        totalRewardsBalance -= _gems;\n        uint256 total = _gems - withdrawalFees;\n        totalWithdrawFees += withdrawalFees;\n        IERC20(spiceContract).transfer(receiver, total);\n        emit Withdraw(\n            transaction_id,\n            block.timestamp,\n            email,\n            msg.sender,\n            _gems,\n            receiver\n        );\n    }\n\n    function _swapFees(uint256 tokenAmount, address receiver) public {\n        require(admins[receiver], \"You cannot withdraw fees for this address\");\n        address[] memory path = new address[](3);\n        path[0] = spiceContract;\n        path[1] = busd;\n        path[2] = router.WETH();\n\n        router.swapExactTokensForTokensSupportingFeeOnTransferTokens(\n            tokenAmount,\n            0,\n            path,\n            receiver,\n            block.timestamp\n        );\n    }\n}\n",
    "sourcePath": "contracts/GameReward.sol",
    "deployment": {
        "address": "0xd5877921A690aB2A04a8F3a82E2e503B10C8fA14",
        "chainid": "97",
        "blockHeight": 22574350
    }
}